S00F000043484950434F4E2E7372656311
S11300000C944A270C9467270C9467270C94672751
S11300100C9467270C9467270C9467270C94672724
S11300200C9467270C9467270C9467270C94672714
S11300300C94F43D0C9467270C9467270C94672761
S11300400C9467270C9467270C9467270C946727F4
S11300500C9467270C9467270C9467270C946727E4
S11300600C9467270C946727BE2DCA2DD62DE22D3C
S1130070EE2D862DB22D120E5B20416E742076314A
S11300802E30205D00FF60FE6100AA10F155224C65
S1130090235C65006A016B006D006E0023683F00FD
S11300A013C645FD12D047CC227A41FB14D041FC43
S11300B0156841FA15E041F9162C600237CC24C6C4
S11300C012266E00A7F2FE1E602EF0557009617CA8
S11300D0AAE8D104600124C0600224C63E1F00FCCB
S11300E07E013E20124E60046104AAF8D01000EE96
S11300F04B0022E67BFFAA12F165A7F2FE1EF05523
S11301007E01621F8E2241FE12A441FF12AE7009CD
S1130110627CAAE8FD1ED20400EE7007617CAB3855
S1130120D10400EE61004B0261084B0161104B00E9
S11301306118AB18F11E617C7001D1087008AAE83F
S1130140FD1ED10400EE47CC73FCAD5CD3403300FC
S113015073FC3300D340430065001230AA10F165EC
S1130160700240FE231AF055A8124101A910F01E96
S1130170F165AA12F15562F082174F00131641FE81
S1130180132441FF132841FD132C13588B1000EE48
S113019061016000AA10F15500EE6B0C00EE6B04D7
S11301A000EE6B0165FD840074F96070ABDCD04037
S11301B0600424C06360AD5CD340600224C060026C
S11301C024C6600124C06070ABDCD04000EE6B013B
S11301D000EE6600682E6C00AA68D68000EE670008
S11301E0242E23DE82C0600CE0A124666003E0A11B
S11301F02486806037CC867481808894AA68F21E35
S1130200D01047CC00FCAA68FC1ED68000EE670024
S1130210242E23DE82C0600CE0A1246647CC670450
S11302206003E0A124868060867481808894AA6833
S1130230F21ED010AA68FC1ED68000EE6100D680A3
S1130240600224C0600224C67101310713C8601E15
S113025024C600FD600AE09E140C4A0000EE4A0128
S113026023FE6A0269FCAA0EF065580000EE6A00DB
S113027069FE00EE600224C0808070ECAA0EF05586
S113028000EE4A02142880602452980014248060EE
S1130290700C24529800142400EE6A0100EE6A00E7
S11302A069FE00EE4A0200EE600449FE6002890025
S11302B080602452980069008060700C2452980079
S11302C0690049046A0000EE8056805680E4611F8C
S11302D08012A7F2F01EF065810000EE60004C0071
S11302E060208C0080607010245280854F0000EEE6
S11302F06704463867CC918014B200EE60404C40ED
S113030060608C00460000EE806070FC24528085A2
S11303104F0000EE67FC918014A600EE806024522A
S113032080874F0069FC00EE8060700C2452808747
S11303304F0069FC00EEF018805E14C6F015F0075B
S1130340300014C800EE24E224F623983F0013C6BC
S113035025104670153C14D4600124C0AA68FC1E04
S1130360D68076FCD680360014E200EE630964255C
S113037065046018AB3CD0307014D0407014D03099
S11303807014D04000EE43096504432565FCAB3C82
S1130390601881308354D010D0306040D010D030F9
S11303A0602C81408455D010D0406054D010D0408F
S11303B000EE7D0400FCA7F2FE1E602AF0557009D1
S11303C0617CAAE8FD1ED104600124C0600224C639
S11303D07E014E206E0076FC3600153E122624E285
S11303E0257A258C23983F0013C64670153C156C5E
S11303F06070610F62FE6300AA14F355AB5CD01009
S113040000EEAA14F3658420420264FE42FE6402F4
S1130410411125CC412125D482408430732043806E
S11304206300AB5CF41E84108124850070FCD5400D
S1130430AB5CF31E3500D010AA14F355350000EE62
S1130440157A640442FC64FE00EE64FC4204640217
S11304504402F41800EE25F025FC23983F0013C64F
S1130460367015E2153C6370640F6500AD7CD340B3
S113047000EE8030700C245271F954102622803022
S113048073FCAD7CF51E7520D010AD7CF51E3000DC
S1130490D340300000EE15F0814074046002F0187F
S11304A000EE24E2265C6E00266827483F0013C64F
S11304B0467017D62646600324C616344D0016D05F
S11304C04D0216F64D0416A84D0616804D08172E3B
S11304D01740636864276500ABDCD34000EE6B0013
S11304E06500AA54FE1EF0658D007E014E146E0058
S11304F04D08171C00EE64278250752045406500A6
S113050080307304ACDCF21E4048ABDCD040ACDC81
S1130510F51E4368ABDCD340336800EE16686427ED
S11305208250752045406500803073FCAD1CF21E7E
S11305304068ABDCD040AD1CF51E4348ABDCD34077
S1130540334800EE1668AA18FB1EF265ABDCF51EF4
S1130550D340ABDCF21ED0108300841085206001F0
S1130560452024C07B033B1E00EE1668AA36FB1E02
S1130570F265ABDCF51ED340ABDCF21ED010830079
S1130580841085206001452024C07B033B1E00EEBF
S11305901668853075F0AD5CD540600124C06001FB
S11305A024C000EE805075FCAD5CD0403000D540D6
S11305B0300000EE16687501350600EE1668670017
S11305C027A4277282C0600CE0A127BA6003E0A1CF
S11305D027C68060867481808894AA68F21ED01031
S11305E0AA68FC1ED68000EE600AE09E17904A00BE
S11305F000EE60024A0124C06A0269FC381A00EE67
S11306006A0069FE00EE4A02179E482E179A00EE11
S11306106A0100EE6A0069FE00EE4A0200EE600420
S113062049FE60028900482E690049046A0000EE10
S113063060004C0060208C00670400EE60404C4079
S113064060608C00460000EE67FC00EE6001F0750F
S1130650600224C024C6600424C024C6600824C0E8
S1130660601E24C600E000FD000000000000000041
S11306700000000000000000000000000000000076
S113068000000000000000002A04260422041E04C6
S11306901A0416082EFE16081A041E042204260440
S11306A02A102AFD220322FF220826102EFE2604E9
S11306B02A042AFF2A062AFF2A06260A26062EFECE
S11306C0260422041E031EFD1A0416081AFF32FE15
S11306D02A062A1C260426FC1E042EFE1A051604CD
S11306E02EFE260826FF26FF1A04160816FD2E0ED7
S11306F016082EFE16042EFE16032EFE160416FDF4
S11307002EFE26082E062A04260422041E041A0499
S1130710160432FF32FF32FF32FF2E081E04220479
S113072026042A0432FE2E042EFD2A0416032A1C53
S1130730260426FB32FE2A04260422041E041A047C
S113074016041AFF22FF2AFF26041E0432FE160393
S113075032FE1E0332FE160316FD32FE1E0332FE67
S113076016032EFF2EFF2EFF2E082A0416062E0433
S11307702A04260422041E041A04160816FA2E0457
S11307802EFD22031E042E02260216031A0226053B
S113079026FF2E061A031E032206260426FD16062D
S11307A032FE32FF2E061A0316031E02220226060A
S11307B01A041E061EFD32FE2604160322031A0521
S11307C01AFF160316FD2E061E021A02160432FE26
S11307D01E041EFD2E082EFF2A0616041A011601F9
S11307E01A0116011A0116011A0116011A0116013D
S11307F01A0116011A0116011A0116011A0116012D
S11308001A0116011A0116011A0116041A041AFD16
S1130810160432FE32FF2E052A02260322021E038C
S11308201A0216031A021EFF2E062202160816FDCD
S11308302E0616032E0616032E0616032E06160380
S113084016FF16022E0616031EFE1A051E042203A8
S113085026022A012E052EFF2A042E042EFF22042E
S11308602E052AFF2E062EFF2E052EFF2E052EFF07
S11308702A0432FE2E032EFD2EFF1A041EFE1A0435
S11308802E222EF90000FE00000000000000682760
S113089020641D406015605C0F805811A0540FC087
S11308A05015E04C1D404827204827004827204C7D
S11308B01D405015E0540FC05811A05C0F80601506
S11308C060641D40682720682700000A08060408A1
S11308D0020A080006080A00020804020A080011B5
S11308E0000A780EDDDBBFFFFFEE7AE0A550A550CD
S11308F000000000000000000000000000000011E3
S1130900000A780EDDDBBFFFFFEE39F052A852A8D3
S1130910000000000000000000000000000088004B
S11309205000701EDBBBFFFD77FF075E0AA50AA51A
S1130930000000000000000000000000000088002B
S11309405000701EDBBBFFFD77FF0F9C154A154A54
S11309500000000000000000000000000000F000A3
S1130960F050E0B0E0B0F02080F0F09090F0008023
S113097000C000E000F0FFF8FFFCFFFEFFFFFFFEF9
S1130980FFFCFFF800F000E000C000800000F080F1
S1130990B0A0B0A08080F00010A030A00000F00053
S11309A020A0A0A00000F010D0B0B0D010102030D3
S11309B070F00000000000000000001F0021003162
S11309C000C1032D7C8D8201FFFF7FFF000000002A
S11309D0000019C026204010800881084088204467
S11309E02042404280828002400C207010800F0020
S11309F00000000001E002101C1020084008838859
S1130A008444880240024002800280044308249007
S1130A101860000000F001080E043002400141019A
S1130A2042024204220411021081100108020464EB
S1130A3003980618092410C2200140014002400214
S1130A404011222111C11002100408380840078007
S1130A50000001F0020802887608F20859F05440B8
S1130A6053C070600050004800A401200A1004081C
S1130A7000100000000003E0041005100C10041026
S1130A803BE078802FC028A028903B90028002E0B1
S1130A90062001F0020802887608F20859F254444C
S1130AA053F870400040004000A001100A080404FC
S1130AB0000804000A00112020A0492022401580CB
S1130AC019804240FC20501FA81114100810003057
S1130AD0000000000400020279058508851087E003
S1130AE0A51085087904120204041F8018801F8051
S1130AF008001000202010500880050002000200A9
S1130B00020E1FCA222A4F9A104F106E1140104035
S1130B100F80001001F8011801F820204048209EA1
S1130B2010A108A507E108A110A1A09E4040002043
S1130B30000014000E2014502D88552424820244F1
S1130B4001A8019002408438F80008000800080059
S1130B5018000F8010401140106E104F0F9A022A97
S1130B6007CA0A0E12001200050008801050202047
S1130B7010000F8010401140106E104F0F9A022A7F
S1130B8007CA060E060003000200020006000A005F
S1130B90070001F0020802887608F20859F0544070
S1130BA053E070500048004800A001100A080404F3
S1130BB0000801F0020802887608F20859F054404F
S1130BC053E07060006000C00040004000600050CE
S1130BD000E03C006B00D540AAA8D555AAA8D54092
S1130BE06B003C000000000000000000000000005A
S1130BF00000000007C01830200840044C649EF236
S1130C0096B28C62800280024384444420081830E7
S1130C1007C0000007C01830200840C441E481A286
S1130C208CC29E029A1A8C22404440842088183038
S1130C3007C0000007C01830200846044F048D1276
S1130C408622802286228F124D0446042008183002
S1130C5007C0000007C01830208840844C449A2202
S1130C609E1A8C028182834243C441842008183036
S1130C7007C0000007C018302008444443848002A1
S1130C8080028C629AD29EF24C6440042008183090
S1130C9007C0000007C0183022084204446488B228
S1130CA0B0F28062830285824784430420081830AE
S1130CB007C0000007C01830200840C4416491E216
S1130CC088C2880288C2916241E440C42008183076
S1130CD007C0000007C018302008430447848582F9
S1130CE083028062B0F288B244644204220818305D
S1130CF007C0616E740A4572696E20532E204361E9
S1130D0074746F0A6B6579733A0A33206C65667480
S1130D100A432072696774680A41206A756D700A13
S1130D2000121A322E303020432E2045676562654A
S1130D3072672031382F382D27393100FF80038125
S1130D4013A8E2F1556005A8E6F05587738663277A
S1130D508600E027A86E4087E26E2787E168346941
S1130D60186A706B006C046D342762A928DAB8DC49
S1130D70D823E23E00127EA8E6F0658500C4FF8415
S1130D80522508C4FF845226306001E0A127F036C2
S1130D90F712508E6028946E64289427F0122CF079
S1130DA0074000132280808006800681A08106818E
S1130DB0068015400012A0400112A040FF12A012AC
S1130DC0D280908006800681B0810681068015401D
S1130DD00012BC400112BC40FF12BC12D2A928DA96
S1130DE0B86A706B00DAB86EF387E26E0487E16E5E
S1130DF032289480808006800681C0810681068026
S1130E0015400012EE400112EE40FF12EE12568021
S1130E10908006800681D0810681068015400013EB
S1130E200A4001130A40FF130A1256A928DCD86CA1
S1130E30046D34DCD86ECF87E26E2087E16E19280A
S1130E40941256603F28C22762A928DAB8DCD86E0B
S1130E504087E3807080E2300012348E602894284A
S1130E60A400E066246714A8E4280066246720A888
S1130E70E22800640065106601670FAB80D460ABA4
S1130E80A0D560600328C23E0013D8AB80D460AB09
S1130E90A0D560740475043460135AAB80D460AB7D
S1130EA0A0D560600328C23E0013D8AB80D460ABE9
S1130EB0A0D5607604362D137AAB80D460ABA0D570
S1130EC060600328C23E0013D8AB80D460ABA0D5C9
S1130ED06074FC75FC34001398AB80D460ABA0D56F
S1130EE060600328C23E0013D8AB80D460ABA0D5A9
S1130EF06076FC360113B8135AABA0D560ABC0D5ED
S1130F0060121A83706E0383E2848085906E06EE0D
S1130F10A114446E03EEA1145C6E08EEA114746E69
S1130F2007EEA1148C43037504430075FC4302745B
S1130F3004430174FC8040815027D082006E0880F5
S1130F40E2300014A46E07802082E2420514AC4211
S1130F500614C4420714FE27626EFC87E2873188B8
S1130F60408950176280408150710427D082006EFE
S1130F700880E23000140463037504142080408167
S1130F805071FC27D082006E0880E23000140463A4
S1130F900075FC142080408150700427D082006EBC
S1130FA00880E23000140463027404142080408139
S1130FB05070FC27D082006E0880E2300014046375
S1130FC00174FC14202762D8988EF000EE6EF08035
S1130FD0E28031F055A930D45876016105F007401C
S1130FE000F11814366EF080E28031F055A938D43F
S1130FF058760480A081B027D06EF080E2300014CF
S1131000E46E0C87E380C081D027D06EF080E2309C
S11310100014F66E3087E360FFF018F015143643C1
S1131020016474430264001436827083706E0C820F
S1131030E280A081B027D0A9286EF080E2300015AC
S113104036DAB8420C7B0442007BFC42087A044244
S1131050047AFCDAB800EE6E80F107310015E6344C
S11310600015E68100830E3F001568839083B54F19
S113107000159E3300158687E3838083A54F0015F2
S1131080CE330015B687E315E6838083A54F00159C
S1131090CE330015B687E3839083B54F00159E3396
S11310A000158687E315E663408132410015E6DAD0
S11310B0B87B04DAB86EF387E2620C872100EE6332
S11310C0108132410015E6DAB87BFCDAB86EF3879A
S11310D0E26200872100EE63208132410015E6DAE6
S11310E0B87A04DAB86EF387E26208872100EE6307
S11310F0808132410015E6DAB87AFCDAB86EF387FB
S1131100E26204872100EEC1F08012300015F66E11
S11311100C87E382E31520DAB8800E4F00160462D0
S1131120047AFC1626800E4F001610620C7B0416FF
S113113026800E4F00161C62087A041626800E4F75
S11311400015EE62007BFCDAB86EF387E2872100BB
S1131150EE827083706E3082E280C081D027D0A985
S1131160286EF080E23000165EDCD842307D044206
S1131170007DFC42207C0442107CFCDCD800EE6E36
S113118080F10731001716340017168100830E4FC3
S1131190001690839083D54F0016C8330016AE878F
S11311A0E3838083C54F0016FC330016E287E31700
S11311B016838083C54F0016FC330016E287E38351
S11311C09083D54F0016C8330016AE87E317166315
S11311D040813241001716DCD87D04DCD887E36EE9
S11311E0CF87E26230872100EE631081324100171D
S11311F016DCD87DFCDCD887E36ECF87E2620087FB
S11312002100EE6320813241001716DCD87C04DC17
S1131210D887E36ECF87E26220872100EE63808166
S11312203241001716DCD87CFCDCD887E36ECF870C
S1131230E26210872100EEC1F08012300017288787
S1131240E36E3087E382E31648DCD8800E4F001744
S11312503662907CFC1758800E4F00174262307D36
S1131260041758800E4F00174E62A07C0417588054
S11312700E4F00171E62007DFCDCD86E4F87E2879C
S11312802100EE80706E0380E2800E818081946E76
S11312900481E241007001800E800E800EA8E8F007
S11312A01ED8988EF000EE6E00A980FE1EFE1EFE73
S11312B01EFE1EF365ABE0FE1EFE1EFE1EFE1EF3AA
S11312C0557E013E80178800EE822383336E0F80A3
S11312D020813027D480E2800E800EA940F01ED2F7
S11312E0347204328017AE82237304434000EE1735
S11312F0AE700471048006800681068106810E8129
S11313000E810E810EABE0F11EF11EF01EF06500A1
S1131310EEA8E6F0658006F0556001E0A117FA003A
S1131320EEF1656E01844382008310651083554F8E
S11313300082E54F001826652782554F0018268045
S113134020813084E4180AF430D67A760C844382FF
S113135000831065E883554F0082E54F00184E6501
S11313600382554F00184E8020813084E41832F4F3
S113137030D67A760C844382008310656483554F9B
S11313800082E54F00186E8020813084E4185AF4FE
S113139030D67A760C844382008310650A83554FD5
S11313A0001888813084E4187AF430D67A760CF107
S11313B030D67A00EEA8E2F16581E43F007001A81E
S11313C0E2F15500EEA8E2F3658E008E254F000091
S11313D0EE3E0018BC8E108E354F0000EEA8E4F1EE
S11313E05500EE8EE3620F63FF6110E2A118DE8107
S11313F034310018CA61108034300018CA00EE6E0F
S11314000100EE00000000050000226363777F3EC8
S11314101C001C1E5D5D6F3E1C003C7E0F070F7E92
S11314203C001C267F7F7B061C001E3F7870783FA3
S11314301E001C327F7F6F301C001C3E7F7763636D
S113144022001C3E6F5D5D1E1C001C3E49777F63BD
S11314507F000000000800000000000000080800F1
S11314600000000000000000000000000000000078
S113147000000000008000000080800000000000E8
S113148000F0000000000000008080808000000068
S113149000F080808080808080F000000080000068
S11314A0000C0808080808080808080808080808BC
S11314B00D0C08080808080808080808080808089F
S11314C00D0A6505050505E50505E505050505C5DB
S11314D00A0A6505050505E50505E505050505C5CE
S11314E00A0A050C08080F050C0D050808080D0567
S11314F00E0F050C08080F050C0D050808080D054E
S11315000A0A050A650605950A0A350505C50A3558
S11315100505950A650505950A0A350506C50A05F2
S11315200A0A050F0508080808080C080F0508082A
S11315300808080F0508080C080808080F050F0517
S11315400A0A7505B505050505C50A6505B505E568
S11315500505E505B505C50A6505050505B505D502
S11315600A0A050C080808080D050F050C080F05E4
S1131570080F0508080D050F050C080808080D05D7
S11315800A0F050F650505C50A35E5950A6505B019
S11315900505B505C50A35E5950A650505C50F05B3
S11315A00F077405D5080F050E0F05080F050C0865
S11315B00808080D05080F05080F05080F7505D460
S11315C0070A050A350505F50505B50505D5080815
S11315D00D0C080F750505B50505F50505950A05F6
S11315E00A0A050808080D050C0808080D3505C584
S11315F00A0A6505950C0808080D050C08080F056E
S11316000A0A750506C50A050808080808080F052A
S1131610080F050808080808080F050A650605D517
S11316200A0A050C0D050A3505050505E50505F548
S11316300505F50505E505050505950A050C0D05E2
S11316400A0A05080F0508080808080F050C0D0507
S1131650080F050C0D0508080808080F05080F05F4
S11316600A0A350505B5050505050505950A0A3572
S11316700505950A0A35050505050505B50505950C
S11316800A0808080808080808080808080F0808CD
S11316900808080F080808080808080808080808BF
S11316A00F01E0021004C809E40BF40BB409E504CB
S11316B0C9021301E70007018303F001FF00FF00E3
S11316C03F0F00108026404F205FA05DA04F2026D2
S11316D0409080CF00C00083001F80FF00FE00F810
S11316E0000F001F803FC07FE07FE05FE047E02005
S11316F0C09080CF00C08083C01F80FF00FE00F830
S113170000FF426C696E6B792056322E30303A0AF3
S1131710482E432E20456765626572670A0A6B6529
S113172079733A0A332075700A3620646F776E0A2B
S113173037206C6566740A382072696768740A0019
S11317407661725B5D3A002053503A00493A00508A
S1131750433A006361727465205344206162736587
S11317606E74652100435241534821206261642014
S11317706F70636F64650A004352415348212062CD
S11317806164206F70636F64650A002739272076CF
S1131790657273206C65206261730A002737272005
S11317A076657273206C6520686175740A0027235E
S11317B02720706167652073756976616E74650AA8
S11317C000272A272070616765207072656365644D
S11317D0616E74650A002741272073656C65637424
S11317E0696F6E0A00464154206472697665720A14
S11317F0436F7079726967687420323030362D32E5
S11318003031320A526F6C616E64205269656765CB
S11318106C0A00736F6B6F62616E0A73706163654B
S113182066696768740A626C696E6B790A6A6F75B7
S1131830737420322E330A6D696E65732068756E79
S11318407465720A616E740A6D61676963207371ED
S1131850756172650A004563686563206F75766516
S113186072742E20666963682E0A00456368656396
S1131870206163636573207265706572742E0A005B
S113188045636865632061636365732066696368A3
S1131890696572730A004563686563206163636503
S11318A07320706172746974696F6E0A00120E207D
S11318B04A6F7573742076322E330000FF28F0606F
S11318C000AA5AF055680069036C006D0F229E004F
S11318D0E06A027C016D078DC54F00124E4C04680E
S11318E0018BC07B0127486E1B6D098DC54F00120B
S11318F054FC306D3CDDEA2750126A6B0868021212
S113190038AAB0FC33F2656D37F130DDEA6D41F28F
S113191030DDEA2750126A6D078DC24D0719502831
S11319204C277025F83B0025F06D0F229E22A84617
S1131930DD16B04A00121E22FA380024BC6D054898
S113194000229E6D034801229E1280FD15FD073D75
S11319500012A000EEAA82F56524A062006D0AEDD3
S1131960A1249C6D03EDA124906D0CEDA12496227D
S1131970CE46DD00EE3F00251600EE278227EC8DD3
S1131980008E1080248134AA62F51E657F80528502
S11319904086008710DDE8AA62F41ED0184138663C
S11319A0DDAA82F55500EE4A0113164A02130E4AC7
S11319B00313AE4A0413B44A0513BA23164A022386
S11319C06800EEAA88F565CD034D0024A4232A23DC
S11319D07A3F0014E800EE8D608D054F008DF76EA0
S11319E0108ED54F0000EE8D708D154F008DF76E63
S11319F00C8ED54F0000EE8D608D054F0024903F76
S1131A000024968D708D153F0024A04F00249C91D6
S1131A1070249C00EEAA8EF565CD014D0024A4230C
S1131A20823F0014F000EE238AAA88F55500EE23C5
S1131A308AAA8EF55500EE278227EC4134249C8D2A
S1131A40008E1080248134AA72F51E657F80528531
S1131A5040DDE8AA72F41ED01800EE231623BA0063
S1131A60EE240E23BA00EEAA94F465440213CE6267
S1131A70002440247CAA94F45500EE720142081319
S1131A80DAAA94F45500EEAAC2D0144A0413EA4A1E
S1131A900314006A0000EEAA9AF465AA94F4554B64
S1131AA0006A054B0000EE25F86A0300EE4B006A5D
S1131AB0014B0000EE25F06A0200EEAA9AF4654498
S1131AC002142262002440247CAA9AF45500EE7287
S1131AD0014208142EAA9AF45500EEAAC2D0144B5F
S1131AE000143C25F86A0300EE6A0500EE41181460
S1131AF050410C146641241466630100EE27AC3394
S1131B000000EE6D01FD1863FD440062FE440162B5
S1131B100200EE27BE330000EE6D01FD1863FD44A4
S1131B200062FE4401620200EE8D008E108024816A
S1131B3034AAC2DDE4D0144138640200EE640862C1
S1131B40FC00EE6400620400EE63FE00EE6302003B
S1131B50EECD01FD184D0024904D012496CD014D8C
S1131B600024A04D01249C00EECD033D0000EEAA0C
S1131B70C0F1656D3BAABAD0D58014400824DC407E
S1131B807024E2AAC0F15500EE6010610800EE6016
S1131B906861F800EE24F84F00159200EE24F84F27
S1131BA00015CE00EE8D608D054F008DF76E088D0B
S1131BB0E53F0000EE8D708D154F008DF76E088D9A
S1131BC0E500EE4A0215644A0115924A0415284AB2
S1131BD005153A1552AA94F46525764F0015462545
S1131BE0844F001546153A272027022702AA94F4A9
S1131BF06513DA272027022702AA9AF465142EAA6D
S1131C0088F56525764F00153A25844F00153A1559
S1131C1092AA88F56525764F0015CE25844F0015C8
S1131C20CE15928D608D054F008DF76E088ED50010
S1131C30EE8D708D154F008DF76E088ED500EEAACF
S1131C4088F565971016628D708D153F0015EC2789
S1131C500CAA72F51ED0184A0315BA4A0215C04AD6
S1131C60016A05264000EE6A04264800EE2640AAD2
S1131C708EF565AA88F5556A0300EEAA8EF5659778
S1131C801016788D708D153F0015EC270CAA72F58F
S1131C901ED0186A03264000EE66DD00EE2600AA78
S1131CA08EF55500EE2600AA88F55500EE261A7B1F
S1131CB0FF249CCD013D0124903D002496AA72F49A
S1131CC01ED018854000EECD034D00163A4D011686
S1131CD0344D02162E6078613400EE6040612000BD
S1131CE0EE6040610800EE6008611400EE2650AA20
S1131CF094F45500EE2650AA9AF45500EE71086D3E
S1131D00378D154F006137C401AAC2D01400EE26E6
S1131D108E3F0016702496237A237A16A4249023E7
S1131D207A237A1698268E3F0016862496238223D9
S1131D308216A424902382238216986D03FD188DA5
S1131D40608D0500EEAA82F565249622CE22CE008F
S1131D50EEAA82F565249022CE22CE00EE270C272F
S1131D600227166D0A229E79FF490016DA4A017B82
S1131D70014A037B014A027B026A024B00121E6A7B
S1131D80024B016A01126A26E400E0272A290C1298
S1131D90126D0CFD186D18229E270C270C27162790
S1131DA0166D20229E271627166D20229E00EE6DAA
S1131DB002FD186D05229E00EE6D04FD186D0A22C9
S1131DC09E00EE6D08FD186D14229E00EEAA5AF0D6
S1131DD0657001F05500EEAA5AF065F033F2656EB5
S1131DE01B6D31F030DDEA7D0AF130DDEA7D0AF267
S1131DF030DDEA00EE63006400657C663EAA5ED3D3
S1131E0043D363D543D5637304740275FC76FE6DC6
S1131E1004229E434000EE438000EE1752640065A6
S1131E200060706114AA62D018AA82F55500EE41D0
S1131E300017D0413417D86D0253D0179E411417A0
S1131E40AC410817BE412017BE00EE412017AC413B
S1131E501417BE412C17BE00EE6D108D074F0017EE
S1131E60E86D688D054F0017E800EE6D298D074F6A
S1131E700000EE6D508D074F0017E800EE6DFE93E5
S1131E80D024A000EE6D0253D000EE480017E838CD
S1131E900017AC00EE630000EE420000EE6D045249
S1131EA0D018004068180A4028181C00EE4010188A
S1131EB00A4050181C00EE6D118D174F0000EE6D96
S1131EC0218D174F00184800EE6D1C8D154F00181A
S1131ED0366D058D174F0000EE6D158D174F0018E8
S1131EE04800EE6D1D8D174F0000EE6D2D8D174FC0
S1131EF000184800EE620000EE00E06D006E3CAA9F
S1131F00ACDDE46D08DDE4AAA86D10480028A8380B
S1131F100028B2AAA86E1C6D78DDE46D00DDE46DC6
S1131F20386E10DDE46D40DDE46E28DDE46D38DDEF
S1131F30E4AAA06D48DDE46E10DDE46D086E1CDDDE
S1131F40E4AAA46D70DDE46E286D30DDE46E10DD6E
S1131F50E428D200EEDDE47D083D8018A800EE6D93
S1131F6070DDE46D78DDE46D10AAB46E3BDDE57DD3
S1131F70083D7018C0606861F8AAC0F15500EE49C8
S1131F800100EE6D016E3DAA5EDDE37D043902DDE4
S1131F90E37D04660386954F00DDE300EEAAC66D7B
S1131FA0246E18DDE06020F01E7D10DDE0F01E7D63
S1131FB010DDE0F01E7D10DDE068006B016A002595
S1131FC0F827702496AA82F5556D0A229EAA82F5F6
S1131FD065294022D2AA82F555AA88F565294023AD
S1131FE092AA88F5556D0AED9E191C00EECD0F4D91
S1131FF00024A441026302413663FE00EE284C270C
S113200070AAC26E0C6D32DDE47D0CDDE47D0CDD66
S1132010E46E246D32DDE47D0CDDE47D0CDDE46EE4
S1132020186D0ADDE46E38DDE46D72DDE466006788
S1132030007701476A121E6D01FD186D03229EAAE6
S113204082F56524A062006D0AEDA1249C6D03ED68
S1132050A124906D0CEDA12496278227EC8D008E8F
S11320601080248134AA62F51E657F80528540DD8C
S1132070E8AA62F41ED01841381A38AA82F5553FEE
S11320800029DC46091A4819846E3491E019F66E69
S11320901491E01A046E0891E01A0C6E2091E01A73
S11320A00C00EE6D7090D01A206D0890D01A2000AC
S11320B0EE6D0890D01A2000EE6D3090D01A207D7D
S11320C00C90D01A207D0C90D01A2000EE7D027E58
S11320D004AAC2DDE4270227027601AA5AF0657039
S11320E001F05500EE6D08FD186D14229E79FF492C
S11320F00016DA121EAA5AF0657008F05579012705
S113210016270C2716121E0000000040E04000664F
S11321106F4CFF6CDCEC7866F632FF363B371E6E94
S11321206F4CFF6CBE9E7C76F632FF367D793E00A6
S1132130000000000000000000000000000000009B
S113214000000000000000000000000000FFBAE8EA
S113215080FF6D1B02FFEEBBB6FFFFFFFF00000018
S113216000061C284CFE0066243C6E000000006043
S1132170B0F06000C000C000C000C000C000C000DB
S1132180C300C700CC00CCC0CCC0CCC0CCC0CC7F7A
S1132190873F03000000000000000000000000F082
S11321A0C0F8C00CC00CC00CC00CC00CC00CC0F8F3
S11321B07FF03F000000000000000000000000C3AA
S11321C0FCC7FCCC00CC00C7F0C3F8C00CC00CCFDB
S11321D0F8CFF0000000003000300030003000FC88
S11321E000FC003000300030003000330033001EAB
S11321F0000C004A6F75737420322E330A457269DD
S11322006E205320436174746F0A6B6579733A0AC4
S1132210412073746172742C7265706C61792C75D1
S1132220700A432072696768740A33206C656674A7
S11322300A00756E6520746F756368652E2E2E0016
S113224020100804010408200102030A0405060BF7
S11322500708090C0E000F0D121D4D494E45532160
S113226020312E3030204279204461766964205731
S1132270494E54455200FF00E0600061006220A511
S113228026D010F21E7110314012296100701030F6
S11322908012296C01246FF30A3304124F246F7CDB
S11322A0FF4C006C05246F3306125D246F7C014CD7
S11322B0066C01246F3305123F80C08CC48CC48C1F
S11322C0C48C048C046AA28AC500E0602A611D6281
S11322D005A508D015F21E7008305A127BA9536068
S11322E00061016200F055F11E720132A2128D6389
S11322F000A953C1FF62A182153F011299F11EF09A
S113230065300012996001F055730153C0129900B1
S1132310E060006100A487D010710E313812BFD084
S1132320106100700E307E12BFA4A7D0187108315E
S11323304012D36D006E002455F20A320212F124C9
S1132340557EFF4EFF6E082455320412FF24557D3E
S1132350FF4DFF6D1124553206130D24557D014D9B
S1132360126D0024553208131B24557E014E096E4C
S1132370002455320C1335242D8100620281224140
S113238002133561048013F0552451244D32051293
S1132390E1242D830062028322430212E18021F0B2
S11323A0552455242D830062018322430113FB2409
S11323B02D8300620483224304244D430024516B83
S11323C0004D00137B4E00137B7DFF7EFF242D7D8B
S11323D0017E014E0013857EFF242D7E014D1113D5
S11323E0974E0013977D017EFF242D7DFF7E014DC6
S11323F00013A17DFF242D7D014D1113AB7D01241C
S11324002D7DFF4D0013BD4E0813BD7DFF7E0124BD
S11324102D7D017EFF4E0813C77E01242D7EFF4DC6
S11324201113D94E0813D97D017E01242D7DFF7E21
S1132430FF4B0013EF7BFFA4CF80B08004800480A7
S11324400480B5F01E245724557AFF3A0012E12483
S113245055142B6D006E00242D610180123001147F
S11324601D242D6104801283004004244D33042470
S113247051A4BF24577D013D1213FF6D007E013E20
S11324800913FF142BA95380E08004800480048086
S11324900480E480E480D4F01EF06581006401814E
S11324A0428B1400EEA4B71457A4C71457A4AF80EA
S11324B0D081E080048004800480D581148114815B
S11324C01481E5D01800EE6056612FA92682C082DF
S11324D0248224822482C472F7F21ED01900EEFFF3
S11324E0FCD5A8AB54D5A8AB54D5A8AB54FFFCD5A8
S11324F0A8AB54D5A8AB54D5A8AB540000000080B9
S113250080808080808080FFFFFFFFFFFFFFFF004F
S113251000183C3C18000000183C7E7E3C1800006B
S1132520542A542A542A0000766656767642006667
S11325305A7A665E4200467A7A467A46005A5A5A6F
S1132540627A7A00425E467A7A4600625E465A5A57
S11325506600427A72666E6E00665A5A665A660061
S1132560E8A8E8888EEE8ACE8AEAEE88EC28EE1196
S113257011151B1177527252577020202020000031
S113258000000000000000FE003E001E001F0017B7
S113259000170013001300130011001100100010A5
S11325A0001000100010001000100010001000387F
S11325B000FE0000000000000000007E001800186B
S11325C00018001800180018001800180000000077
S11325D000000000000000000000000000000000F7
S11325E000000000000000000000000000000000E7
S11325F000000000000000000000000000000000D7
S1132600000000000000000F000F001E001E001E4E
S1132610803E803E804EC04EC04EE08EE08EE10E85
S1132620F10E710E7A0E3A0E3C0E1C0E1C0E081F93
S1132630087F0000000000000000600060007C3C97
S113264066666666667E66606660663C00000000DC
S1132650000000000000001F00100010001700110F
S113266000110011001100110011001100170010D9
S11326700010001F00000000000000000000000027
S1132680000000000000CFF903E001C001C001C058
S113269001C001C001C001C001C001C001C001C02E
S11326A001C001C001C001C001C001C001C003E0FC
S11326B0CFF9000000000000000000000000007ED0
S11326C0006B006B006B006B006B0063000000008C
S11326D0000000000000FFFF00000000C7F7021226
S11326E00202024203C1024102011210F7F000008B
S11326F00000FFFF000000000000000000000000D8
S1132700000000000000F00778013C003C003E009F
S11327102F002780278023C021E020F020F020789C
S1132720203C201E201E200F2007200320037001C0
S1132730FC00000000000000180018000000787C75
S1132740186618661866186618667E66000000002B
S1132750000000000000FFFF0000000077F72211D6
S11327602201224143C142414201821187F7000004
S11327700000FFFF00000000000000000000000057
S1132780000000000000F3FFC0F8807080708070CB
S113279080708070807080708070807F80708070A6
S11327A0807080708070807080708070807080F81D
S11327B083FF0000000000000000006000603C7C1B
S11327C0666666667E66606660663C66000000005B
S11327D0000000000000FFFF00000000C000000037
S11327E0000000800000000000001000F0800000E5
S11327F00000FFFF000000000000000000000000D7
S1132800000000000000FC010C07040E040E001E72
S1132810001E001E100F100F3007F00330001000D0
S1132820100000000000001000100118031C0E1E10
S1132830FE13000000000000000000000000667CA1
S1132840666666666666666666663E6600000000E4
S1132850000000000000FFFF000000000001000273
S11328600002000200020002000200020001000057
S11328700000FFFF00000000000000000000000056
S1132880000000000000F9000F0003000100010037
S1132890000000000000C000F000F800FE007F000F
S11328A01F000F80078007800780070007000E00C5
S11328B0F8000000000000000000300030007E3C02
S11328C030663066307E306030601E3C00000000B0
S11328D0000000000000F80008000800C8002800FC
S11328E0280028002800280028002800C800080024
S11328F00800F800000000000000000000000000D4
S1132900000000000200070007000700070007009E
S1132910070007000700070002000200020002008F
S11329200200000000000000000002000700070091
S1132930020000000000000000000000000066002B
S11329406E00700060006000600060000000000025
S11329500000000000000000000000000000000073
S11329600000000000000000000000000000000063
S1132970000000000000000000000000000020E053
S1132980202020202020F87088080810204080F89B
S1132990708808083008088870103030505090F85B
S11329A01038F8808080F0080888704D696E65736F
S11329B02068756E7465720A44617669642057698B
S11329C06E7465720A6B6579733A0A322075700AFF
S11329D03820646F776E0A34206C6566740A36207A
S11329E072696768740A352073656C6563740A00DC
S11329F000FF221B6E05222FECA11237EDA1127FDE
S1132A004A321204EBA1223F12048000E0A488FEA3
S1132A1065A4644A0014582269F629D99500EEF198
S1132A20073100122F00EE4A0112046E081216F745
S1132A30156001F018AFC8FA1EF565A2F3F1654EF2
S1132A4005125F81354F0070FF7AFF853012658172
S1132A504480F47A01F155226DA44CFA33A44CF26B
S1132A6065F129DD95F229D695A488FA5500EE2260
S1132A701B6D006C006202F218614022D587606110
S1132A808022D584E081E0816422A74C00132D4389
S1132A901812BB230F12996E0023014E0123012348
S1132AA00183E08323830E830E00EE22A7431812D2
S1132AB0CF22E57E04230F7EFF3E0012C51299A4A7
S1132AC085F75512A322E57E058E0E8E0E86E086CE
S1132AD017860600EE6E0023012301230123010063
S1132AE0EE6D08A4B4FC1EF0658B009C506CFF7C5A
S1132AF0014D0012F17DFF8E0E8B0E8EF100EE4320
S1132B001013193314131B78017901A494F31ED6FE
S1132B10747604561000EE8645770400EEA485F71B
S1132B20656A00222F6B01A493F56598901417E150
S1132B30A1143CE0A11440E3A11444E4A11448E529
S1132B40A11429E29E13354C0013356B007CFFA4BD
S1132B50ACD6747DFF4DFF6D38A44CFD1EF0658A24
S1132B6000F41581A2A493F11EF5654B0023F380B4
S1132B70608170804481544B001393A43A24074E1F
S1132B80011333A21A24074E0013C3820083108258
S1132B904483544B0013E5A21A240F4E0113337AD5
S1132BA080A4A4240788E5240F88E4A4B0D014FBEF
S1132BB018D2344B0013EB3C397C0180A0A44CFDAB
S1132BC01E7D014D396D00F055A4ACD67486448742
S1132BD054D67413338A0E4F0113B1A485F765A438
S1132BE0AC13DDA485F75586448754864487548501
S1132BF0B784B7F55500EED0128EF0D01200EED2A5
S1132C00328EF0D23200EEF3186032F015222F2209
S1132C101B4A321202223F1281F118601EF0152263
S1132C202FE59E13353A00127F1200206A021371B9
S1132C306A0413716A0113716A03137100C1D561C7
S1132C40F11E75083558144E6528831533FE144C4F
S1132C506A011227FE7999E7C7DB0ECDF3366CDBE8
S1132C601CCDE3366CDB38CDB33667DB70CD9B37D8
S1132C70C0DBE07981E6079EFE01800600000F07B5
S1132C8002020009070A050800FC00040000000015
S1132C90F0F0F0F000402000F0D0B0F060F0F06010
S1132CA0F09090F06E0088C290185341842A156009
S1132CB0E8528C1551144089808A4443652858365B
S1132CC0D121519143640180C5402260598C03B0E5
S1132CD030155D8128505D81AAA0BB0048282EC014
S1132CE08852282D288250A5288200C0508C005C70
S1132CF0824520AC06460A95A2C1528560CB4A2182
S1132D0015288AB300294282BB600A140598023C44
S1132D109E83C520E84C11909814010A5026052D75
S1132D20AD0A213028580D109814B4694B150A3097
S1132D301606A4560680200B0360340581A16B6837
S1132D4048C0D004016071708C824461081118225B
S1132D50354182301A458540598014A15566000AD0
S1132D605A28CC00B42922454282C15294182AA27E
S1132D708C1D0060F120678902A3B022C8AEC0A8F0
S1132D800BB406D176044A2ECA89488946820215B4
S1132D90288094282020A02045407881C44226021F
S1132DA0A8922968A01604A1415015488D55282AD7
S1132DB06C894A536C8802BB644B4476C882A44431
S1132DC05500BB0558421170402814A2095288507E
S1132DD0410A5040154A882A8B234A505014028DC8
S1132DE0404502805294890454181304604C11988D
S1132DF09823313046626091409C8344E0C86D98CA
S1132E00144436CC09816330241436CC09450DB3FF
S1132E1001548A4052DA2C062214A44C0694040568
S1132E2090A1402852265A522301604C1628BE1500
S1132E3008DC8AB034052D02D0A536CA16D4028324
S1132E40B6528096968ED954042803B6580A5294E2
S1132E5076CA011215DB2A2085283B650512D29516
S1132E6076536442C09CA6C896D2DA3A24303472AF
S1132E70009151C8030772011B00AE832AC1954417
S1132E801822A0AD181A812050604A14B54581203B
S1132E90D580B0244A5A22B0140A20948A8021682A
S1132EA0811114B055C00A845763645581BB6730DF
S1132EB086616111308C8E0C291122501444294AE8
S1132EC05411102C94051511A52ABB6510294176BF
S1132ED0CA2B6D28BB6580A28BB68900A2ED900831
S1132EE08C0558230160D1308E022B0550142240EA
S1132EF0AC0504015428D10436C289592A88E70A4A
S1132F0008D04031852805111CE140505A5318520D
S1132F10880835CE152850285DB08D22400A0882D5
S1132F2001161540BD81C4E031380B01602964A34A
S1132F30016D1022A22B3128088166251111598AAE
S1132F4002A80AA2A3550680850444296D04AA2276
S1132F500528ADA2244603404602A8A808C0D80A02
S1132F6003038A030A5500BC022905404182A1409B
S1132F70606A8D0154010A0B404010490A25401033
S1132F806054551455AB0144ACC2880885DBFC542D
S1132F90888330A02080A91304B410606830160719
S1132FA01201844440A988C15016088020AA09410E
S1132FB0541042D281505641A00A0828528A25054D
S1132FC014C883568391502ECB90401DF6C825A378
S1132FD030A084541060CAA09B022D02760406041B
S1132FE0ED02604EC082A8113041418420820A085B
S1132FF04445055150A111105128504A0A494280B4
S11330008112148980200C1A248E80C5E0886040C7
S11330106088E0090402222EC8AA0A09B2B0155237
S11330208ED80A214500D85051488D5A94404414F2
S1133030401A5A220851104AA20C2D0422E082ACF4
S11330401554BE0894250245582444A03044050074
S11330505580A51050060294422230152850046071
S11330602A528A88C05442822301511A808C054511
S113307040448985055119814028050367446854F3
S1133080A04C0B034149818F80BE008B40623045C8
S11330905060281419041227554154401441A6CAFB
S11330A0250A0820E512830169B2882A2C05CA2A58
S11330B00820D3651004AAA0E51A050A0F36500AA1
S11330C0252883A2255401E6C80805A2B3020302F9
S11330D052240450AA8AC0981B02606AA028AA201D
S11330E080A322802025B4A16A0208A50404114209
S11330F09140B69504405026044404763220222E92
S1133100D92225076CC054088C0A22BE8940554038
S11331101008984480A821410142850A25282B4A99
S113312002489401429171510198D2A22824C48288
S1133130220599288894660364110A555AAA544AA8
S113314002A50282A580D28500548914888B05606B
S11331506C7C9E0089C210415603112B441401D883
S113316041040401D84AD10AAA38180B4104760252
S1133170A094011DA441A341047612B01A823B0815
S113318036B41057612A085682EC20820202B855E0
S1133190088808AA0AA04440BE8D8033306551993E
S11331A0ADC8245E880AC0A8580D15154042882C65
S11331B0090141150A82282A2A51AA802A444288F0
S11331C020A91100A2882289410A14A022142B6D7F
S11331D00404410B0288892282083018D0BE558528
S11331E0A11A04103666241044889B6416A0132286
S11331F0080B62411128C062520AD128112050A341
S11332006D581AC09006B554551944011100B014F4
S11332100444051602AA44AC48A2C1100408B80428
S1133220447A227044108880A083B65442A0ED8171
S1133230128DA6D8110A83B63220258B581D28A8D2
S113324021688091205B64604C096051408E23A00A
S1133250ED804010156610AA23459890A0802CC4D8
S113326082088458A14A083016AD16A8A05004A0BC
S113327008828A882D11296C0685044A01569122F8
S113328026120B088900AC82C4609110181A942885
S1133290454A14A2E581DA0BB2844857615104010E
S11332A0DB0A5010076C2C83451576D110A5A0BB02
S11332B020285285DB200968510C80205282A80402
S11332C048061111008E88C29016129422B015116E
S11332D081C5040AD6404050605440A282A454548C
S11332E014DBCC222A8A7DF6FB88A962C2D14281F2
S11332F042805050404040418F809E81C5E0880C00
S1133300052220C06944408895445128A022941184
S11333102849688B6D114540450045101522351428
S1133320603419811054528CC0A940A203B5C282E2
S11333309441660224044B6CA011100888BD055802
S11333405211580A8282030142A59280AA0D0A09E9
S11333504A82A8551A580A8208816D0528050AA4CC
S113336044A51A82080A0A82B4401066080A00AB0F
S1133370312AC09981560AED9610ED984C44A881E3
S11333802AC06220802C06A0294145464A512822A1
S1133390A8A0541981A51066040A833005A28ED80A
S11333A04A0244A94181202B0268AC0D060AAAA74F
S11333B08D40541502814888A5A28144014B68912F
S11333C0101128A8208514A9500503648A6C519112
S11333D06614A8ACC08515765008C8A922B016603A
S11333E001401CE428A0B302248A24C0820AC05AE3
S11333F02D15150A008D0A52A0888528A220A82818
S11334002200A28A21442820AD280A802111812A81
S113341080BE8C113010045660502D40902615014A
S11334201501260545150426044A580A22A8852AAA
S1133430830288882A88A282340510052850451002
S11334401512940110110A28A24444B603683015D9
S11334501454A0C09004401814488900BE84444207
S11334602211201040550A5288250145141440A504
S113347080D0A22A5051602A0911223688B62248E7
S1133480B0144A0AD54A0A25040541504B4A205A29
S1133490200C0501410089EC65581B32B04665607B
S11334A09170AE8BC1198808B4C4020A02ECA94019
S11334B02C0576C52880A02ED9B110041540101A09
S11334C00D1042D2942A8208501AD16882A288022E
S11334D0820214A29120100A14181A80880C122354
S11334E0244610A866812A91324460341102A951FD
S11334F06BB64412ED810471914404688D0A00880E
S113350044C550BE84C488CCC0A80B01598142D59F
S11335100A48B302C0AD2A13028514B444DB28510F
S11335204A084C0A91115174440A14503029550424
S1133530888AA050181A0851A52AA0825B52808A52
S1133540A0802168C0E2402B088880BC008C4058D1
S11335503280208DA50401A350524405144A2280D0
S11335608146822008094044014A501440104142D7
S1133570880200A5A8912B40404660422839DB0B05
S113358004660018233000C122A0AE83C4612A025D
S1133590C1D602C1942D060AA5A1460A9402882A1E
S11335A08081691208A0A00BA116D917244C5015CC
S11335B0C913C34AACCE2011B0A309505852A88DE8
S11335C080C5206AB02890200A52812208A2D6948D
S11335D0B1126242D150262410144989A14146CC2B
S11335E045A94501515A1488850A142880850A146E
S11335F028811202250488806E8244E0911041568D
S11336000280814010551B4514116048828AA0A98C
S11336105A14282ED8011410176C804822A2BB64B7
S1133620150A1422A28080C1A2A0AE2230A40614DE
S1133630891382302B24480128B4540401154A010B
S1133640440122220D2240AA2D81285428228A2CAA
S1133650151DB244C150DB03015511DB230645445B
S113366060CC0D8345409B888AB0276C882A80ED06
S1133670950A080CC0A50AA8B302814115DB0A52B9
S1133680888A008504414454889446850050A48562
S113369000A0A0252D28AA11205411401540150082
S11336A0B98B0030455122420A894A50A2C0DA023D
S11336B0AD0B505410512A80B502922008528A80D2
S11336C0220504011404405088880C150198D50182
S11336D098D80C546D82AAC0A2A0A00A16054890DE
S11336E00A280BB651B4A5AD5DB288048081B650EA
S11336F0A8ADA06D94A1685166055B038982113859
S113370022A8B808A803F77EE803BEFBE401FBEF98
S1133710BA00EFBEF9007EFBEE802A02B024040258
S11337202444E0EA5294A515294A514694A52A084E
S1133730164A0208444105501540AB81AAC21058EC
S11337403A02C192D1606AD0A280AA0140454122C6
S113375020880233051110293022214477D91150D1
S11337605515101549282D580AA580B0341406079C
S11337701500BE8146204BB00203015DB94028808C
S11337802EDF223450076F9112822AED90401110DF
S1133790518322494A2A088A25028088082B68080E
S11337A0888802050112220952230241A020202008
S11337B0820A80B0141060480282AC0A24282321B3
S11337C0382E242837354C3B333C433E333139477C
S11337D04B37474645442C393F354341312C364B12
S11337E046421F483F3539323C3A342E38384BFF75
S11337F0536F6B6F62616E206279204861700A6B4F
S11338006579733A0A352075700A3820646F776ECB
S11338100A37206C6566740A392072696768740A0D
S1133820412073656C6563740A00122453706163EC
S11338306546696768743230393120627920536C87
S1133840616D6D65722F416E61726368792100FF4D
S113385000E02786222E1226AC406000F055680056
S1133860A86FF81EF765AC57F81EF755780838C0EE
S11338701236AC40600061036200F255229EAC3FF8
S1133880F0654000126070FFF055283E261E256644
S1133890247E2350AC48F465300012943100129415
S11338A032001294330012943400129422EAAC4091
S11338B0F0657020F05540C000EE229E1254AC41D9
S11338C0F0653000125400EE26EAAC436038610023
S11338D06200F255AC46600061006201630164015C
S11338E0650166016705680069006A006B006C0584
S11338F0FC55AC3F60FFF05500E026A6268C26BEA2
S1133900266E265826C66500151873013305137EE6
S11339106300137EAC3FF065805680568056F055A8
S1133920277826A6268C26BE266E60206119A9AFAC
S113393062086300D0187008F21E73013308130A7A
S1133940266428362836AC3FF065400000EE266435
S1133950266EAC3FF06570FFF055AC42F065700127
S1133960F0552664266E6001F018283EAC3FF065E1
S1133970300013242836283600EEAC50F2653000AF
S113398013A472FFF255320000EEAC40F06562C041
S11339908205825682568256825682568020AC52C6
S11339A0F055C303C4018344AC48F31EF0654000E2
S11339B012E0A86AF31EF0658300AC46F16580341A
S11339C070077119AC50F2556002F0181474247425
S11339D07104AC50F15524744140144E413F144ECF
S11339E0413E144E413D144E412B140E412A140EF7
S11339F04129140E4128140E4127140E4F0000EEE5
S1133A0082008310AC44F165400013FE502013FE85
S1133A10AC42F0657001F0556001F01825E6AC4445
S1133A2060006100F155144E6A00245E245A7A0144
S1133A303A051400245E144E820083008256825696
S1133A408256AC40F065AC57F01EF21EF0654000A3
S1133A5000EEF06570FF82006000F05542001444EF
S1133A608020F0556210F21E6000F055144E60F88C
S1133A708032612CAC3AD0142474AC5060006100E4
S1133A80F15500EE6901146269FF1462268C60012D
S1133A90F018AC41F0658094F055268C183AAC507F
S1133AA0F165AAF6D01300EEAC4DF06570FFF05549
S1133AB0300000EE6005F055650025182498650176
S1133AC01518AC4EF16540001504400114CC4002B9
S1133AD014F0600AF018AC47F065300C7001F05532
S1133AE07101AC4F8010F055310400EEAC4E600013
S1133AF06100F15500EE600AF018AC47F065300C37
S1133B007001F0557101AC4F8010F055310400EE96
S1133B10AC4E60026100F15500EEAC46F06570FCFD
S1133B20F055300000EEAC4E6003F05500EEAC46AC
S1133B30F0657004F055302800EEAC4E6001F0558D
S1133B4000EEAC46F1658710860077096800AC404A
S1133B50F0658900AC48F81EF065AA0FF91E300024
S1133B60D6703F002546761278013805152A00EEF6
S1133B70450000EED670AC48F81E6000F055266E85
S1133B80AC42F0657002F055266E25E6AC4416167C
S1133B90AC44F165400000EE412C157E412D157EAC
S1133BA0412E157E312F00EE82008300825682560C
S1133BB08256AC40F065AC57F01EF21EF065400032
S1133BC000EEF06570FF82006000F055420015B40D
S1133BD08020F0556210F21E6000F05515BE60F8AA
S1133BE08032612CAC3AD01425E6AC441616600A37
S1133BF0E09E00EEAC44F065300000EEAC43F065AE
S1133C007007AC44612EF15525E66001F01800EE12
S1133C10AC44F165AAF63000D01300EE25E6AC44BE
S1133C20F16571FE4108161641091616F15525E68F
S1133C3030004F0000EE650025186501251800EEE0
S1133C4060006100F15500EE25C425F26003E0A197
S1133C501644600CE0A1163000EEAC43F0654070F1
S1133C6000EE26587001AC43F055265800EEAC43E4
S1133C70F065400000EE265870FFAC43F05526581E
S1133C8000EEAC43F0656131AACFD01000EEAC3F3A
S1133C90F065633964221676AC42F06563226403EE
S1133CA0AC53F033F265F0292686F1292686F229F1
S1133CB0D345730500EEAC41F065400000EE614D64
S1133CC06201AAEFD127710870FF3000169A00EE46
S1133CD060656100AB1962086300D0187008F21EB9
S1133CE07301330416B000EE60006100AAF916AC4B
S1133CF06100622C6300AC40F0658400AC67F41E84
S1133D00F31EF065AC3A3000D1247108730133100E
S1133D1016D200EE275C2714272C26F6276A00EE1D
S1133D20270E2836270E283A270E283A270E28363B
S1133D30270E2836270E18366003F01800EE602090
S1133D40610CABF962086300D0187008F21E7301AD
S1133D503308171E00EE60306120A9EF620863008B
S1133D60D0187008F21E730133041736AC40F065A6
S1133D70805680568056805680567001F030603BE5
S1133D806129D01A00EE6100283E00FC7101312047
S1133D90175E00EE6100283E00FB71013120176CB4
S1133DA000EE6100283E00C471013110177A00EE64
S1133DB0AC3E6064F05527D026A6268C26BE266E1F
S1133DC027E8283E280027A6600AE09E179800EE00
S1133DD0AC3EF06570FFF055300000EE6064F055C5
S1133DE027D0AB396010611862206300D0107010C6
S1133DF0F21E7301330617C200EEA92F602061186A
S1133E0062206300D0107010F21E7301330417DABD
S1133E1000EEAC566000F055820064002828720160
S1133E2080207401341017F200EEAC56F065820065
S1133E3084002828A84A825EF21EC07FC13FF15543
S1133E40AC39D011630F740184328040AC56F05504
S1133E5000EEA84A805EF01EF165AC39D01100EE88
S1133E60600C1840600618406001F015F00730003F
S1133E70184200EE0A115B225B29753854110C09B3
S1133E80341378342604061A0C22200A0016060578
S1133E903F07001E00122436480000000000000006
S1133EA0000000000000000000000000000000000E
S1133EB000000000000000000000000000000001FD
S1133EC001010100000000000000000000000001EA
S1133ED001010100000000000000000002020200D5
S1133EE000000001010100000000000001010100C8
S1133EF000000001010100000000050500000005AC
S1133F00000005000000050500000101000000019B
S1133F100000010000000101000A0A00000A0A0072
S1133F200000000A0A00000A0A0101000001010061
S1133F3000000001010000010114141414141414ED
S1133F4014141414141414141401010101010101B2
S1133F500101010101010101013C007C00E000C0FC
S1133F6000CC71CCFBCDDBCD9BCD9BFDFB7CFB0062
S1133F700000000000FFFFFFFF0000000000000041
S1133F8000F0E0F9F07D986DF86D806DF86CF80044
S1133F900000000000FFFFFFFF38007C00EC00CCB5
S1133FA000CD99CD9BCD9BCD9BCD9BFCF37861003F
S1133FB00000000000FFFFFFFF00070007000600ED
S1133FC006C1CCE3CC3708F6080600F618F618004C
S1133FD00000000000FFFFFFFFFDFD113131313112
S1133FE031A1B3BFBFB3B3B3B31C3C706078607C82
S1133FF03C0E1F1B191F191F1F0E1FBBB333B3BF6A
S11340001E66767E6E66666666CCCCCDCDCCEC7DC7
S11340103D70F383E0F033F3E0C0C1C3C3C3E37B7B
S113402039ECEC8C0CCC0FE7E3C7CFDCD8DED89F9F
S11340300F6060606060703C1C000097D2038001D8
S1134040000FE03FF85554ABBAFF6EBABA55543F6F
S1134050F84FE400008002000003C0066004A003DF
S1134060C004200B3014581428105812A80D5016F0
S1134070A823C47FFE400200004AAA15504AAAD5CC
S113408053E4277FFE399C0C30066007E033CC2BC9
S1134090D407E003C00180000003C0056006A0034C
S11340A0C01BD82D745EBAA565C6A3C7E3CDB3DA29
S11340B05B542A18181818300C300C4812A42584A4
S11340C0214C32324C02401FF820AC285420AC1F43
S11340D0F87FFE9249924992493FFC40025AFA50B5
S11340E00A43EA524A47CA500A5FFA40023FFC0FA9
S11340F0F0381C5436AC2BF81F01000100010001FC
S113410000010003800380038007C0C6C67D7C3F96
S1134110F87FFCC38601000000101010287CD6FE36
S11341208080803879C3F37B1BFBF1E3E78E0C0CB2
S11341300CEFE78EDFDBD9DFDFDB990E1EB8B0BCF6
S113414030BE9EC3C3C3C3C3E37B3B666666666679
S11341507E3C183879E3C3F1C0FB7BE0E000C0E0AB
S113416060E0C03C007C00E000C000F1E079F11D9B
S1134170BB0D9B0D9BFDFBF9F1018001800180FCCF
S11341803FFFFF0000000000000000E1CEF3DFB7B6
S113419019361F3618F7DFF3CF000000000000FFC8
S11341A0FFFFFF0F001F00380030003EC73ECFB0B6
S11341B01DB0D930D9B0DFB0CF0001000F000FFF20
S11341C0E0FFFF30603060306030603C78BE78B72C
S11341D060B360B370B33CB31C8000800000007F08
S11341E0FFFFFF3C3C7E7EE6E6C6C60EC61CC63814
S11341F0C670C6E0C6FEFEFE7C000000000000FFA4
S1134200FFFFFF3CC77EC7E6C6C6C6C6CCFECC7E53
S1134210C806C806C0FED8FCD8000000000000FF95
S1134220FFFFFF3C7CE1C1CDCDFD7C77F7C081E190
S113423081F1F1E0E0808080808080F0F8DDCDFDC8
S1134240F9DDCC71F3C786E786F6F6C7EF6D6CEC43
S11342506C6F6F1999D9DFCFC6C68698989898184D
S113426000181880FFAA55FF00000000000000009D
S1134270000000000000000000000000000000003A
S1134280000000000000000000000000000000002A
S1134290000000000000000000000000000000001A
S11342A0000000000000000000000000000000000A
S11342B000000000000000000000000000000000FA
S11342C000000000000000000000000000000000EA
S11342D000000000000000000000000000000000DA
S11342E000000000000000000000000000000000CA
S11342F000000000000000000000000000000000BA
S113430000000000000000000000000000000000A9
S11343100000000000000000000000000000000099
S11343200000000000000000000000000000000089
S11343300000000000000000000000000000000079
S113434000FF737061636566696768742032303991
S1134350310A4361727374656E20536F6572656EC2
S113436073656E0A0A6B6579733A0A412073746146
S113437072742C20666972650A33206C6566740A4F
S1134380432072696768740A00FFFFFFFFFFFFFFA5
S1134390FFFFFFFFFFFFFFFFFFFFFFFFFFFFFFFF29
S11343A0FFFFFFFFFFFFFFFFFFFFFFFFFFFFFFFF19
S11343B0FFFFFFFFFFFFFFFFFFFFFFFFFFFFFFFF09
S11343C0FFFFFFFFFFFFFFFFFFFFFFFFFFFFFFFFF9
S11343D0FFFFFFFFFFFFFFFFFFFFFFFFFFFFFFFFE9
S11343E0FFFFFFFFFFFFFFFFFFFFFFFFFFFFFFFFD9
S11343F0FFFFFFFFFFFFFFFFFFFFFFFFFFFFFFFFC9
S1134400FFFFFFFFFFFFFFFFFFFFFFFFFFFFFFFFB8
S1134410FFFFFFFFFFFFFFFFFFFFFFFFFFFFFFFFA8
S1134420FFFFFFFFFFFFFFFFFFFFFFFFFFFFFFFF98
S1134430FFFFFFFFFFFFFFFFFFFFFFFFFFFFFFFF88
S1134440FFFFFFFFFFFFFFFFFFFFFFFFFFFFFFFF78
S1134450FFFFFFFFFFFFFFFFFFFFFFC1CF9981FFBA
S1134460FFFFFFFFFFFFFFFFFFFFFF80CF9980FFEC
S1134470FFFFFFFFFFFFFFFFFFFFFF1C4F999C7F24
S1134480FFFFFFFFFFFFFFFFFFFFFF3ECF999E7F70
S1134490FFFFFFFFFBFE7FFFFFFFFE7FCF999E78AC
S11344A07C3C87FFFBFDBFFFFFFFFE7FCF999E7023
S11344B0381C03FFF3FBDFFFFFFFFE7FC0199C6383
S11344C0118C73EFABFBDFFFFFFFFE7FC01980E7AA
S11344D093CCF3F77BFBDFFFFFFFFE7FCF9981E7F0
S11344E0F3CCF3F77BFBDFFFFFFFFE7ECF999FE763
S11344F0F3CCF3F77BFBDFFFFFFFFF3C4F999FE714
S113450093CCF3FAFBFBDFFFFFFFFF1CCF999FE384
S1134510118CF3FAFBFBDFFFFFFFFF80CF999FF0C5
S1134520381CF3FAFBFDBFFFFFFFFFC1CF999FF8D3
S11345307C3CF3FDFBDE7FFFFFFFFFFFFFFFFFFF80
S1134540FFFFFFFFFFFFFFFFFFFFFFFFFFFFFFFF77
S1134550FFFFFFFFFFFFFFFFFFFFFFFFFFFFFFFF67
S1134560FFFFFFFFFFFFFFFFFFFFFFFFFFFFFFFF57
S1134570FFFFFFFFFFFFFFFFFFFFFFFFFFFFFFFF47
S1134580FFFFFFFFFFFFFFFFFFFFFFFFFFFFFFFF37
S1134590FFFFFFFFFFFFFFFFFFFFFFFFFFFFFFFF27
S11345A0FFFFFFFFFFFFFFFFFFFFFFFFFFFFFFFF17
S11345B0FFFFFFFFFFFFFFFFFFFFFF8FFFFFF7F787
S11345C0DF3EFBF7FBFC3FFFFFFFFF77FFFFFFF73B
S11345D0DEDD73E7FBFDDFFFFFFFFEF634DD56543F
S11345E08EEBABE7FB1DEC7FFFFFFEFDD35D359348
S11345F05FEBBBD7FAEDEBBFFFFFFEFDD76B75D7C3
S11346005FDBBBD7FBEDEBBFFFFFFEFDD76B75D7C1
S11346105FBBBBB7FB0DE83FFFFFFEF5D76B75D75C
S11346205F7BBB83DAEDEBFFFFFFFF75D3777597F5
S11346305EFD7BF7DAEDDBBFFFFFFF8E34F77657C5
S11346404E0EFBF7E70C3C7FFFFFFFFFF7F7FFDFA2
S1134650FFFFFFFFFFFFFFFFFFFFFFFFF7F7FDDF98
S1134660FFFFFFFFFFFFFFFFFFFFFFFFF7CFFE3F4F
S1134670FFFFFFFFFFFFFFFFFFFFFFFFFFFFFFFF46
S1134680FFFFFFFFFFFFFFFFFFFFFFFFFFFFFFFF36
S1134690FFFFFFFFFFFFFFFFFFFFFFFFFFFFFFFF26
S11346A0FFFFFFFFFFFFFFFFFFFFFFFFFFFFFFFF16
S11346B0FFFFFFFFFFFFFFFFFFFFFFFFFFFFFFFF06
S11346C0FFFFFFFFFFFFFFFFFFFFFFFFFFFFFFFFF6
S11346D0FFFFFFFFFFFFFFFFFFFFFFFFFFFFFFFFE6
S11346E0FFFFFFFFFFFFFFFFFFFFFFFFFFFFFFFFD6
S11346F0FFFFFFFFFFFFFFFFFFFFFFFFFFFFFFFFC6
S1134700FFFFFFFFFFFFFFFFFFFFFFFFFFFFFFFFB5
S1134710FFFFFFFFFFFFFFFFFFFFFFFFFFFFFFFFA5
S1134720FFFFFFFFFFFFFFFFFFFFFFFFFFFFFFFF95
S1134730FFFFFFFFFFFFFFFFFFFFFFFFFFFFFFFF85
S1134740FFFFFFFFFFFFFFFFFFFFFFFFFFFFFFFF75
S1134750FFFFFFFFFFFFFFFFFFFFFFFFFFFFFFFF65
S1134760FFFFFFFFFFFFFFFFFFFFFFFFFFFFFFFF55
S1134770FFFFFFFFFFFFFFFFFFFFFFFFFFFFFFFF45
S1134780FFFFFFFFFFFFFFFFFF12234D6167696318
S1134790205371756172652076312E302062792044
S11347A044617669642057494E54455200FE00E046
S11347B0A47D60006100620167006800F055F21E8C
S11347C0710131401233A3FF61066001620B63077C
S11347D0D10BF21E700DD107F31E70F37108313E38
S11347E01247600D611A62056E03A3D0D015F21E44
S11347F0700630311263235FF20A3204127F4E03D3
S1134800128D235F7EFF235F3206128D4E08128DB8
S1134810235F7E01235F3205126F00FF00E0610019
S113482088E4710151E012978AE08AA48AA48AA4D8
S113483060808A078A068BE08BB48BB48BB46040AB
S11348408B078B0680A081B062006300A3F8D017A9
S11348507008720152E012C580A0710862007301F1
S113486053E012C56C006D002365F00A300212EFAC
S113487023653D007DFF2365300412FB23653C0066
S11348807CFF23653006130923657C019CE07CFFD3
S113489023653008131723657D019DE07DFF2365A3
S11348A0300512E123A3237F4D0013297DFF237FCD
S11348B07D014C0013337CFF237F7C0180C0700199
S11348C090E013417C01237F7CFF80D0700190E055
S11348D0134F7D01237F7DFF23A3578012E12365BE
S11348E06020610023A3135BFE29D01500EEA3F220
S11348F082C083D082248224822482A48334833499
S1134900833483B4D23600EE81C082D082248224E0
S113491082248124A47DF11EF06569018093300115
S113492077FF30007701F055A3ED13676318A3B147
S11349306108D1306167D13000EE04200240824129
S1134940400223C4042008101008D24B12480990D6
S113495005A003C003C003C00180808080F8F880F4
S1134960E080F88888885020F880E080F880808093
S113497080F8002000200000383838007C4444448B
S11349807CFE8282828282FEC1E3F7DDC9C1C1C19D
S1134990C1C1C1FE00C0FE0202FE8F9FB8B0B0BF0D
S11349A0BFB0B0B0B07F01616165627D83C7EE6C5A
S11349B06CECEC6C6E67633000303030303FF3FBEE
S11349C003030373FB1B3BF3E39F80989F98989822
S11349D01F3F706060606060703F1FCF404CCF4CE1
S11349E04C4C80C000000000000000FFFFE72026C0
S11349F0E7864627000000000000000000F0E0F019
S1134A000000800000F07371756172650A4461767C
S1134A1069642057696E7465720A6B6579733A0A22
S1134A20322075700A3820646F776E0A34206C6502
S1134A3066740A362072696768740A3520696E766E
S1134A40657274207371756172650A00000000005C
S1134A5000000000202020202000200050505000A2
S1134A60000000005050F850F85050002078A0701A
S1134A7028F02000C0C81020409818006090A04082
S1134A80A890680060204000000000001020404012
S1134A904020100040201010102040000020A8707A
S1134AA0A8200000002020F82020000000000000C2
S1134AB060204000000000F0000000000000000042
S1134AC0006060000008102040800000708898A8F2
S1134AD0C8887000206020202020F80070881020F2
S1134AE04080F800F00808F00808F00010305090FA
S1134AF0F8101000F88080F00808F000304080F0D2
S1134B0088887000F8081020404040007088887041
S1134B1088887000708888700808700000606000E1
S1134B206060000000606000602040001020408051
S1134B30402010000000F800F80000004020100899
S1134B401020400070880810200020007088086839
S1134B50A8A87000708888F888888800F08888F091
S1134B608888F0007880808080807800F088888849
S1134B708888F000F88080F88080F800F88080F859
S1134B8080808000788080B088887000888888F869
S1134B908888880070202020202070007808080869
S1134BA0089060008890A0C0A090880080808080D9
S1134BB08080F80088D8A888888888008888C8A851
S1134BC0988888007088888888887000F08888F0C1
S1134BD08080800070888888A8987800F08888F0A1
S1134BE0A0908800788080700808F000F8202020C9
S1134BF02020200088888888888870008888888891
S1134C0088502000888888A8A8D8880088885020E0
S1134C10508888008888885020202000F810204080
S1134C208080F800604040404040600000804020A8
S1134C301008000018080808080818002050880008
S1134C4000000000000000000000F80040201000F8
S1134C50000000000000700878887800808080B030
S1134C60C888F00000007080808870000808086818
S1134C709888780000007088F8807000304840E020
S1134C804040400000007888887808708080B0C870
S1134C908888880000200020202020001000301088
S1134CA010906000808090A0C0A090006020202020
S1134CB0202070000000D0A8A88888000000B0C898
S1134CC08888880000007088888870000000F08858
S1134CD088F080800000689090B050180000B0C840
S1134CE080808000000070807008F0004040E04048
S1134CF04048300000008888889868000000888850
S1134D008850200000008888A8A85000000088501F
S1134D102050880000008888887808700000F81007
S1134D202040F800204040804040200020202020E7
S1134D30202020004020201020204000000040A817
S1134D4010000000FCFCFCFCFCFCFCFC402010F807
S1134D5010204000102040F8402010002070A820AF
S1134D602020000000202020A87020000070F8F807
S1134D70F87000007C82868A92A2C2827C000818A5
S1134D802808080808083E00384482040810204017
S1134D90FE00384482023C028244380084848484C5
S1134DA07E04040404007E8080807C020202FE00F3
S1134DB078848080FC8282827C007E8204080808D9
S1134DC008080800384482827C82824438003844CF
S1134DD08282463A0204380038448282FE82828209
S1134DE08200FC828282FC828282FC003E408080BF
S1134DF0808080403E00F884828282828284F8002F
S1134E00FE808080FE808080FE00FE808080FE80A8
S1134E1080808000E0A0A0A0E000C0404040E0000E
S1134E20E020E080E000E020E020E000A0A0E0201E
S1134E302000E080E020E0008080E0A0E000E020AE
S1134E4020202000E0A0E0A0E000E0A0E02020007E
S1134E50E0A0E0A0A000C0A0C0A0C000E0808080CE
S1134E60E000C0A0A0A0C000E080E080E000E080FE
S1134E70E08080000B022A024B026E029302BA0207
S1134E80E40210033F037003A403DC031704550476
S1134E909704DD0411241FBECFEFD8E0DEBFCDBFE1
S1134EA011E0A0E0B1E0E0ECFFE702C005900D9254
S1134EB0A830B107D9F726E0A8E0B1E001C01D92FF
S1134EC0A73CB207E1F70E94322E0C94DE3F0C940B
S1134ED00000FC01818190E0982F88272081822B9B
S1134EE00895FC0123816281862F90E0A0E0B0E068
S1134EF077276627922B2081622B2181722B0895BC
S1134F00CF93DF93EC010E94E43D0E942F3D82E0A9
S1134F100E944339CE010E94E8398FE497E10E9450
S1134F20E83980915F069091600664E002970E94E0
S1134F30FA398091840662E090E00E94FA39809107
S1134F40850662E090E00E94FA390E9446398CE4BA
S1134F5097E10E94E83964E08091610690916206CD
S1134F600E94FA3987E497E10E94E8398091630648
S1134F7062E090E00E94FA390E94463980E497E1A9
S1134F800E94E839C4E6D6E0899162E090E00E948C
S1134F90FA3986E0C437D807B9F70E9446390E9427
S1134FA0CA35DF91CF910C94EC3DFF920F931F9380
S1134FB0CF93DF9381FF0CC080E092E09093600672
S1134FC080935F0610926306109262061092610647
S1134FD081E080935C02CEEFDDEC0E94E635811126
S1134FE076C080915F06909160060E940C3B80938E
S1134FF084069093850640915F0650916006BA013D
S11350006E5F7F4F7093600660935F06082F0F708A
S1135010192F12951F70807FE0E18E9F900111245B
S1135020211588E0380709F4B8C008F09BC02115A1
S1135030310539F4892F807F803C09F4E0C2292F9F
S113504030E0263088E0380709F49BC02730E8E0D8
S11350503E0708F043C0211583E0380709F4C3C2B2
S113506008F4C4C0211588E0380709F4B0C208F474
S1135070CDC02330E8E03E0709F409C308F06AC153
S11350802130E8E03E0709F4E1C12230384009F05C
S11350900CC3E02FF0E0E15AF94FA12FB0E0A15A80
S11350A0B94F15968C91958189238583C15009F058
S11350B094CF80915C028111FCCF81E080935C02EB
S11350C0C09179000E94E635882309F48ACF81E0F3
S11350D0DF91CF911F910F91FF9008952A30EFE057
S11350E03E0709F4CCC208F05DC02115EBE03E0791
S11350F009F439C208F4A2C02E398EE0380709F445
S113510028C208F043C121158CE0380709F493C183
S113511021153D4009F0C9C29F70F92E09F4DAC285
S11351208091C60680FFC8C2692F70E048E051E054
S113513080916106909162060E94373BA12FB0E0F6
S1135140A15AB94FE02FF0E0E15AF94F01E028E00D
S113515031E04F2D15966C9185810E94DA3B809346
S11351607306A4CF21158EE0380729F02115EFE04E
S11351703E0709F066CF292B263088E0380709F06E
S113518065CFE02FF0E0E15AF94F8581982F96958D
S1135190958381708093730689CF292F2F7030E017
S11351A038604FCF20338FE0380709F4F8C108F492
S11351B065C02536EFE03E0709F4E4C108F097C066
S11351C02333EFE03E0709F40CC125353F4009F0D5
S11351D06CC2602F70E06F5F7F4F44E656E08091B1
S11351E06106909162060E94623B60CF2C3F3105BC
S11351F009F434C208F46AC02F3F310511F008F0F5
S11352008AC02E3F310508F462CF50CF211585E0C6
S1135210380709F415C208F407C22115E6E03E0771
S113522009F449C12115374009F03FC2E02FF0E0ED
S1135230E15AF94F8581890F858338CF2E30E8E014
S11352403E0709F40EC208F4DFC1211589E03807CE
S113525009F41CC121153A4009F027C2202F30E07F
S1135260322F2227290F311D3093620620936106C5
S11352708091C60681608093C60618CF28318FE0DE
S1135280380709F45CC108F44BC12E31EFE03E0746
S113529009F417C129323F4009F007C2E02FF0E0BA
S11352A0E15AF94F8581E6E08E9FC00111248C5E9E
S11352B0914B909362068093610680E00E9443398B
S11352C08091C6068E7F8093C606F0CE203E3105BF
S11352D009F432C108F48FC12E3E310509F4C4C06B
S11352E02B3F310509F0E1C10E949E3DDFCE2537F9
S11352F0EFE03E0709F409C125383F4009F0D5C164
S113530080E0E82FF0E0E15AF94F958995838F5FAB
S11353100817B8F7CBCE211581E0380781F02115A5
S1135320324009F0C2C1E0916306EF5FE093630687
S1135330F0E0EE0FFF1FE15AF94F70A767A3202F8B
S113534030E0322F2227290F311D3093600620933D
S11353505F06ACCE2430E8E03E0749F12530384002
S113536009F0A3C1E02FF0E0E15AF94F9581A12F94
S1135370B0E0A15AB94F15968C91292F281B25838B
S113538021E0981750F12093730690CE213A8EE0D5
S1135390380709F4A6C027303F4009F086C1809140
S11353A05E02E02FF0E0E15AF94F85837FCEE02FD3
S11353B0F0E0E15AF94F2581A12FB0E0A15AB94F8D
S11353C015968C91982F920F958390E0820F911DE2
S11353D021E08F3F910509F0B4F620E02093730695
S11353E065CEE02FF0E0E15AF94F95819D9F812D24
S11353F01124869586958695EAE08E9F901911244E
S113540090930A018D9F912D1124969596959695CA
S11354102AE0929F80191124809309019093080136
S113542048E051E063E070E080916106909162068B
S11354300E94623B3BCE0E947B3FE02FF0E0E15AAA
S1135440F94F909185069823958330CEE02FF0E0B4
S1135450E15AF94FA12FB0E0A15AB94F15968C919A
S11354609581892B858322CEE09163068FEF8E0F81
S113547080936306F0E0EE0FFF1FE15AF94F87A116
S113548090A59093600680935F0610CEA02FB0E0A5
S1135490A15AB94FE12FF0E0E15AF94F15969C91CA
S11354A08581981709F402CE4C5F5F4F50936006D4
S11354B040935F06FBCDE02FF0E0E15AF94F95836E
S11354C0F5CDE02FF0E0E15AF94F25818091610696
S11354D090916206820F911D9093620680936106FB
S11354E0E5CD0E947735E02FF0E0E15AF94F958140
S11354F0981709F4DBCD80915F06909160060296BF
S11355009093600680935F06D1CD80E0E82FF0E0B1
S1135510E15AF94F9581958B8F5F0817B8F7C6CD7F
S113552025313F4009F0C1C0E02FF0E0E15AF94FC6
S1135530858180935E02BACD0E942F3DB7CDE02FC6
S1135540F0E0E15AF94F65818BE092E00E94923BD2
S1135550ADCD0E947735E02FF0E0E15AF94F958107
S11355609813A4CDC8CF80916406202F30E0322F49
S11355702227290F311D280F311D309360062093F7
S11355805F0694CD602F70E06F5F7F4F44E656E076
S113559080916106909162060E94373B87CDE02F8F
S11355A0F0E0E15AF94F85812AE0829FC00111247D
S11355B08C58924B909362068093610681E00E941E
S11355C043398091C6068E7F8093C6066FCDA12F86
S11355D0B0E0A15AB94F15968C91E02FF0E0E15A52
S11355E0F94F858363CDE02FF0E0E15AF94F8581CF
S11355F098135CCD59CF203C310509F056C0892F52
S11356008F700E943D3D52CD2730384009F04DC087
S1135610A12FB0E0A15AB94F15969C91E02FF0E06C
S1135620E15AF94F8581A9CE2115344009F03DC0D6
S1135630E02FF0E0E15AF94F8581981335CF36CD4C
S1135640A02FB0E0A15AB94FE12FF0E0E15AF94F91
S113565015969C918581981329CD26CF0E94C53D2E
S113566025CDE02FF0E0E15AF94F8581982F990F6D
S11356709583881F8827881F8093730617CD0E94FF
S1135680C535E02FF0E0E15AF94F85830FCDE02FC7
S1135690F0E0E15AF94FA12FB0E0A15AB94F1596A5
S11356A08C9195818927858301CD82E0DF91CF910B
S11356B01F910F91FF900895209161063091620629
S11356C0A12FB0E0A15AB94FE02FF0E0E15AF94F11
S11356D000E03FCD48E051E060E270E08091610677
S11356E0909162060E94373BA12FB0E0A15AB94FB6
S11356F0E02FF0E0E15AF94F48E051E015966C9143
S113570085810E945B3C80937306D0CCEF92FF921C
S11357100F931F93CF93DF936115710589F08C016B
S11357207B018EEFF81AC0E0D2E0F8016491CE015B
S11357300E94EC3A0F5F1F4F2196CE15DF05A9F7A3
S1135740DF91CF911F910F91FF90EF900895FF92F9
S11357500F931F93CF93DF93CDB7DEB7A0970FB608
S1135760F894DEBF0FBECDBF182F0027F12CAE0179
S11357704F5F5F4F60E270E0C8010E94373B898150
S1135780882391F080E20E947739CE0101960E942D
S1135790D93987E0F81631F00E944639F394005E57
S11357A01F4FE5CF88E0F82E8F2DA0960FB6F89402
S11357B0DEBF0FBECDBFDF91CF911F910F91FF9040
S11357C008956F927F929F92AF92CF92DF92EF9261
S11357D0FF920F931F93CF93DF936C0186ED97E1B4
S11357E00E94E83981EC97E10E94E8398EEA97E15A
S11357F00E94E8398CE997E10E94E8398BE897E147
S11358000E94E8390E94CA350E942F3D82E08093AD
S11358105E0280915E028111FCCF80E090E00E94E4
S1135820A72BA82EC0E0D0E0E12CF12C912C00E0B5
S11358302CE43DE448E0692D80E00E94DA3B0E94BC
S1135840C535182F66E00E94A43B2CE43DE448E0F3
S1135850692D80E00E94DA3B1A3009F443C0D0F489
S1135860173089F1193069F42A2D30E021503109BB
S1135870C217D3070CF05EC021969C2E990C990C8C
S1135880990C0E9477358F3F91F262E0812F0E943C
S1135890A43BF7CF1E30F9F01F3099F7E7012196AA
S11358A09E01220F331F220F331F220F331F2C158B
S11358B03D050CF456C0CA2DD0E021979C2E990CBE
S11358C0990C990CDECF209719F121979C2E990CF5
S11358D0990C990CD6CFE114F104F1F4C0E0D0E0B6
S11358E0912CCFCFC701880F991F880F991F880F5C
S11358F0991F8C0F9D1FDF91CF911F910F91FF90E6
S1135900EF90DF90CF90AF909F907F906F9008952D
S1135910E114F10409F4B5CF81E0E81AF1080E941A
S11359202F3DC7010E94A72BA82EC7E0D0E048E373
S1135930942EA7CF37018FEF681A780AC301880F16
S1135940991F880F991F880F991F8C159D050CF0BE
S113595098CF0E942F3DC3010E94A72BA82E73014C
S1135960BDCF0E942F3DCE010E94A72BA82E7E0101
S1135970C0E0D0E0912C85CFEF92FF920F931F935C
S1135980CF93DF93CDB7DEB7CB54D1090FB6F894DC
S1135990DEBF0FBECDBF2C961FAE2C97E12CF12C91
S11359A000E010E003C089A184FF26C0CE01019667
S11359B00E9466358111F7CF1CA6AE01445D5F4F8E
S11359C060E270E0C801880F991F82959295907FDC
S11359D09827807F98270E94623BC801C55BDF4FF0
S11359E00FB6F894DEBF0FBECDBFDF91CF911F91EC
S11359F00F91FF90EF900895BE016F5F7F4FCE012E
S1135A008C960E94B83FAE01445D5F4F60E270E047
S1135A10C7010E94623B0F5F1F4F80E2E80EF11C3A
S1135A20C5CF0E94BC2C009709F408950E94E12B75
S1135A3097FDFBCF0E9411358823B9F382E00E94C1
S1135A40D527823091F788E797E10C948027AF92AD
S1135A50BF92CF92DF92EF92FF920F931F93CF9357
S1135A60DF93CDB7DEB7A2970FB6F894DEBF0FBEB3
S1135A70CDBFE3E1F8E19491992309F4BBC0C12CB3
S1135A80D12CA12CB12C01E010E09A3009F463C0B0
S1135A90DE01119620E030E02F5F3F4F9D930F5FB2
S1135AA01F4FC8018D5E974E7C01FC013197949184
S1135AB09A3091F7E1E0F0E0EC0FFD1FE20FF31FE5
S1135AC01082AE014F5F5F4F60E270E0C6010E943A
S1135AD0623BFFEFAF1ABF0A0F5F1F4FF7019491AC
S1135AE0F0E2CF0ED11C9111D0CFC50189A39AA3A6
S1135AF00E942F3D89A19AA10E94E12B8730910534
S1135B00C8F4FC01EC5CFF4F0C940D3F6CE77CE0A7
S1135B1086E790E00E94862B64E082EF9CE00E947E
S1135B204F3A82E00E94D527823021F485E697E13E
S1135B300E948027A2960FB6F894DEBF0FBECDBF99
S1135B40DF91CF911F910F91FF90EF90DF90CF9055
S1135B50BF90AF90089520E030E0F801ED5EF74E7D
S1135B607F01A8CF6DE772E089E897E40E94862B55
S1135B7064E086E09AE40E944F3AD3CF60E07EE08E
S1135B8080EF99E20E94862B64E080EF97E30E9405
S1135B904F3AC7CF68E17BE08AE298E30E94862B04
S1135BA064E082E493E40E944F3ABBCF61EE79E073
S1135BB081E29DE00E94862B64E082E097E10E94EE
S1135BC04F3AAFCF66E479E08DEA98E10E94862BE4
S1135BD064E083EF91E20E944F3AA3CF63E577E05C
S1135BE088E592E20E94862B64E08BEA99E20E94A7
S1135BF04F3A97CF80E090E079CF0F931F93CF93E4
S1135C00DF93C9E8D3E400E010E809581344FE0127
S1135C106491C8018C0F9D1F0E94EC3A2196F7E411
S1135C20C938DF07A1F70E94EC3D88E780935E0244
S1135C3004C00E9477358F3F69F480915E02811120
S1135C40F8CF0E9477358F3FE1F7DF91CF911F9115
S1135C500F91089562E088EE93E00E94923B1092C7
S1135C605E02EBCF80E880936100109261000E9495
S1135C70BE3B84B1886284B980E58CBD8DB58160FA
S1135C808DBD81E680937C0087EC80937A0010922E
S1135C907B0081E080937E000E946D350E948C3BE6
S1135CA00E94E53A789480918400909185000E9446
S1135CB0803F0E9403370E943734811123C0C0E023
S1135CC00E94FD2D64E085EE97E10E944F3A0E9408
S1135CD02F3D82E00E944339C11111C083E597E151
S1135CE00E94E8390E9446390E94CA350E94272D35
